{
  "contractName": "Coinflip",
  "abi": [
    {
      "constant": true,
      "inputs": [
        {
          "name": "",
          "type": "address"
        }
      ],
      "name": "balances",
      "outputs": [
        {
          "name": "",
          "type": "uint256"
        }
      ],
      "payable": false,
      "stateMutability": "view",
      "type": "function",
      "signature": "0x27e235e3"
    },
    {
      "constant": true,
      "inputs": [
        {
          "name": "",
          "type": "address"
        }
      ],
      "name": "lastFlip",
      "outputs": [
        {
          "name": "",
          "type": "bool"
        }
      ],
      "payable": false,
      "stateMutability": "view",
      "type": "function",
      "signature": "0x36335173"
    },
    {
      "constant": true,
      "inputs": [],
      "name": "counter",
      "outputs": [
        {
          "name": "",
          "type": "uint256"
        }
      ],
      "payable": false,
      "stateMutability": "view",
      "type": "function",
      "signature": "0x61bc221a"
    },
    {
      "constant": true,
      "inputs": [],
      "name": "owner",
      "outputs": [
        {
          "name": "",
          "type": "address"
        }
      ],
      "payable": false,
      "stateMutability": "view",
      "type": "function",
      "signature": "0x8da5cb5b"
    },
    {
      "inputs": [],
      "payable": false,
      "stateMutability": "nonpayable",
      "type": "constructor",
      "signature": "constructor"
    },
    {
      "constant": true,
      "inputs": [
        {
          "name": "_addr",
          "type": "address"
        }
      ],
      "name": "getBalance",
      "outputs": [
        {
          "name": "",
          "type": "uint256"
        }
      ],
      "payable": false,
      "stateMutability": "view",
      "type": "function",
      "signature": "0xf8b2cb4f"
    },
    {
      "constant": true,
      "inputs": [
        {
          "name": "_player",
          "type": "address"
        }
      ],
      "name": "getLastFlip",
      "outputs": [
        {
          "name": "",
          "type": "bool"
        }
      ],
      "payable": false,
      "stateMutability": "view",
      "type": "function",
      "signature": "0x1e6d5673"
    },
    {
      "constant": false,
      "inputs": [],
      "name": "flip",
      "outputs": [],
      "payable": true,
      "stateMutability": "payable",
      "type": "function",
      "signature": "0xcde4efa9"
    },
    {
      "constant": false,
      "inputs": [],
      "name": "deposit",
      "outputs": [],
      "payable": true,
      "stateMutability": "payable",
      "type": "function",
      "signature": "0xd0e30db0"
    }
  ],
  "bytecode": "0x6080604052600060015534801561001557600080fd5b50336000806101000a81548173ffffffffffffffffffffffffffffffffffffffff021916908373ffffffffffffffffffffffffffffffffffffffff160217905550610518806100656000396000f3fe60806040526004361061008e576000357c0100000000000000000000000000000000000000000000000000000000900463ffffffff1680631e6d56731461009357806327e235e3146100fc578063363351731461016157806361bc221a146101ca5780638da5cb5b146101f5578063cde4efa91461024c578063d0e30db014610256578063f8b2cb4f14610260575b600080fd5b34801561009f57600080fd5b506100e2600480360360208110156100b657600080fd5b81019080803573ffffffffffffffffffffffffffffffffffffffff1690602001909291905050506102c5565b604051808215151515815260200191505060405180910390f35b34801561010857600080fd5b5061014b6004803603602081101561011f57600080fd5b81019080803573ffffffffffffffffffffffffffffffffffffffff16906020019092919050505061031b565b6040518082815260200191505060405180910390f35b34801561016d57600080fd5b506101b06004803603602081101561018457600080fd5b81019080803573ffffffffffffffffffffffffffffffffffffffff169060200190929190505050610333565b604051808215151515815260200191505060405180910390f35b3480156101d657600080fd5b506101df610353565b6040518082815260200191505060405180910390f35b34801561020157600080fd5b5061020a610359565b604051808273ffffffffffffffffffffffffffffffffffffffff1673ffffffffffffffffffffffffffffffffffffffff16815260200191505060405180910390f35b61025461037e565b005b61025e6104a1565b005b34801561026c57600080fd5b506102af6004803603602081101561028357600080fd5b81019080803573ffffffffffffffffffffffffffffffffffffffff1690602001909291905050506104a3565b6040518082815260200191505060405180910390f35b6000600360008373ffffffffffffffffffffffffffffffffffffffff1673ffffffffffffffffffffffffffffffffffffffff16815260200190815260200160002060009054906101000a900460ff169050919050565b60026020528060005260406000206000915090505481565b60036020528060005260406000206000915054906101000a900460ff1681565b60015481565b6000809054906101000a900473ffffffffffffffffffffffffffffffffffffffff1681565b60004290506000349050600060028381151561039657fe5b061415610444573373ffffffffffffffffffffffffffffffffffffffff166108fc600283029081150290604051600060405180830381858888f193505050501580156103e6573d6000803e3d6000fd5b506001600360003373ffffffffffffffffffffffffffffffffffffffff1673ffffffffffffffffffffffffffffffffffffffff16815260200190815260200160002060006101000a81548160ff02191690831515021790555061049d565b6000600360003373ffffffffffffffffffffffffffffffffffffffff1673ffffffffffffffffffffffffffffffffffffffff16815260200190815260200160002060006101000a81548160ff0219169083151502179055505b5050565b565b6000600260008373ffffffffffffffffffffffffffffffffffffffff1673ffffffffffffffffffffffffffffffffffffffff16815260200190815260200160002054905091905056fea165627a7a723058207f4a22bccfbc659b49da5351259d4aa540a9c7500d82e63f9ba2a9235d2452410029",
  "source": "pragma solidity >=0.4.21 <0.7.0;\r\n\r\ncontract Coinflip {\r\n  address public owner;\r\n  uint public counter = 0;\r\n\r\n  mapping(address => uint) public balances;\r\n  mapping(address => bool) public lastFlip;\r\n\r\n  constructor() public {\r\n    owner = msg.sender;\r\n  }\r\n\r\n  function getBalance(address _addr) public view returns (uint){\r\n    return balances[_addr];\r\n  }\r\n\r\n  function getLastFlip(address _player) public view returns (bool) {\r\n      return lastFlip[_player];\r\n  }\r\n\r\n  function flip() public payable {\r\n    uint time = block.timestamp;\r\n    uint bet = msg.value;\r\n\r\n    if(time % 2 == 0){      //Requires a more effective random number algorithm for production use.\r\n      msg.sender.transfer(bet*2);\r\n      lastFlip[msg.sender] = true;\r\n    }\r\n    else{\r\n        lastFlip[msg.sender] = false;\r\n    }\r\n  }\r\n\r\n  function deposit() public payable {\r\n\r\n  }\r\n}",
  "sourcePath": "C:/Users/lfege/Code/Coinflip/contracts/Coinflip.sol",
  "compiler": {
    "name": "solc",
    "version": "0.5.0+commit.1d4f565a.Emscripten.clang"
  },
  "schemaVersion": "3.0.1",
  "updatedAt": "2020-02-15T16:26:05.490Z",
  "devdoc": {
    "methods": {}
  },
  "userdoc": {
    "methods": {}
  }
}